:020000040800F2
:10000000A0680020CD0200080555000881440008C2
:1000100089530008A909000865680008000000006D
:100020000000000000000000000000003502000891
:100030007D0E00080000000079020008215F000822
:10004000E7020008E7020008E7020008E7020008EC
:10005000E7020008E7020008E7020008E7020008DC
:10006000E7020008E70200087F0E0008E702000828
:10007000E7020008E7020008E7020008E7020008BC
:10008000E7020008E7020008E7020008E7020008AC
:10009000E7020008E7020008E7020008890E0008EE
:1000A000E7020008BD5F0008E7020008E702000859
:1000B000E7020008CD5F0008DD5F0008E7020008E6
:1000C000E7020008E7020008E7020008E70200086C
:1000D000E702000835680008456800085568000810
:1000E000E7020008E7020008E7020008E70200084C
:1000F0005D600008E7020008E7020008E702000868
:10010000E7020008E7020008ED5F0008E7020008C8
:10011000E7020008E7020008FD5F0008E7020008A8
:10012000410E0008E7020008E7020008E7020008A5
:1001300000F002F800F06EF80AA090E8000C82448B
:100140008344AAF10107DA4501D100F063F8AFF268
:10015000090EBAE80F0013F0010F18BFFB1A43F0A5
:1001600001031847E0920000009300000A444FF09A
:10017000000C10F8013B13F0070408BF10F8014B06
:100180001D1108BF10F8015B641E05D010F8016B4B
:10019000641E01F8016BF9D113F0080F1EBF10F8AF
:1001A000014BAD1C0C1B09D16D1E58BF01F801CBD2
:1001B000FAD505E014F8016B01F8016B6D1EF9D555
:1001C0009142D6D37047000000230024002500266A
:1001D000103A28BF78C1FBD8520728BF30C148BFAA
:1001E0000B607047642900F0FD80752900F0FA80EB
:1001F000732900F08082002070471FB500F096FB45
:1002000004000020002108F003FB401C60601FBDBB
:1002100010B510BD00F065FB1146FFF7EEFF07F0CB
:1002200049FB00F095FB03B4FFF7F2FF03BC07F0B6
:100230002DFB0000224B19680868B0E8F00F80F32E
:100240000988BFF36F8F4FF0000080F311884EF0E4
:100250000D0E70470000000006480068006880F33B
:10026000088862B661B6BFF34F8FBFF36F8F00DFB0
:1002700000BF00BF08ED00E0EFF30980BFF36F8F10
:100280000F4B1A6820E9F00F106008B54FF05000CE
:1002900080F31188BFF34F8FBFF36F8F08F040F8E2
:1002A0004FF0000080F31188BDE808401968086825
:1002B000B0E8F00F80F30988BFF36F8F704700BF7D
:1002C000C4000020EFF30580704700000948804714
:1002D00009480047FEE7FEE7FEE7FEE7FEE7FEE728
:1002E000FEE7FEE7FEE7FEE704480549054A064B40
:1002F00070470000BB5F000831010008A0620020C9
:10030000A0680020A0640020A064002070470000C6
:100310000FB4044910B503AA029800F0F1F910BC1B
:100320005DF814FBB00000202DE9F0410E460446B4
:10033000002020622046E168884730B3252805D098
:10034000D4E901219047206A401CF2E7E168204689
:1003500000278847050018D0A5F14100192802D8C8
:1003600020354FF400673246294620462760FFF7C4
:1003700039FF40B1012804D0F61D26F007060836E3
:10038000D8E7361DD6E72846DAE7206ABDE8F081CF
:1003900070B50C460546012A05D02878800600D5A0
:1003A000EA69002302E0012305E05B1C934202D2CC
:1003B000E05C0028F9D1A869E618C01AA861286A8B
:1003C000184428622846AFF3008004E0D5E90121F3
:1003D00014F8010B9047B442F8D32846AFF30080DD
:1003E00070BD00002DE9F041064600241068752913
:1003F000314616A510D0AFF30080002802DA404243
:1004000013A507E031688A0701D512A502E0490764
:1004100004D511A5012401E0AFF3008000210A22D8
:1004200006F1240709E0B0FBF2FCB0FBF2F302FB9B
:100430001C00303078541846491C0028F3D123465C
:100440002A463046BDE8F04100F0EAB8000000005E
:100450002D0000002B0000002000000070B50646B3
:1004600000F0DAF80468054630460A22002100F060
:1004700059F92C6070BD00F08DB930B503461D7878
:100480001DB10A4603E0AC4201D1181A30BD12F882
:10049000014B002CF7D15B1CF1E710B5203AC0F0FE
:1004A0000B80B1E81850203AA0E81850B1E8185075
:1004B000A0E81850BFF4F5AF5FEA027C24BFB1E8B2
:1004C0001850A0E8185044BF18C918C0BDE8104023
:1004D0005FEA827C24BF51F8043B40F8043B08BF2C
:1004E0007047D20728BF31F8023B48BF11F8012BF3
:1004F00028BF20F8023B48BF00F8012B70474FF09F
:1005000000020429C0F0128010F0030C00F01B80E0
:10051000CCF1040CBCF1020F18BF00F8012BA8BFEE
:1005200020F8022BA1EB0C0100F00DB85FEAC17CB2
:1005300024BF00F8012B00F8012B48BF00F8012B65
:1005400070474FF0000200B5134694469646203996
:1005500022BFA0E80C50A0E80C50B1F12001BFF47C
:10056000F7AF090728BFA0E80C5048BF0CC05DF8E2
:1005700004EB890028BF40F8042B08BF704748BF30
:1005800020F8022B11F0804F18BF00F8012B7047A4
:100590004FF0013C50F8042B51F8043B9A4221D112
:1005A000A2EB0C03934313EACC1317D150F8042B9E
:1005B00051F8043B9A4215D1A2EB0C03934313EA82
:1005C000CC130BD150F8042B51F8043B9A4209D1BB
:1005D000A2EB0C03934313EACC13DBD04FF00000E3
:1005E000704700BFD01A01BAB1FA81F101F01801C9
:1005F00022FA01F0CB40C1F12001DBB2C0B2C01A37
:100600002CFA01F3D11A914311EAC311E6D17047D4
:100610007047704770470000004870473C620020F8
:100620002DE9F0470D4699469246044600F124080C
:100630000168880604D5E06921F01001216000E01E
:100640000120A84201DD471B00E00027A1697A19BB
:1006500002EB0900081AA0612078C00602D42046E7
:10066000AFF30080002608E0D4E901211AF8060063
:100670009047206A401C761C20624E45F4DB2078AF
:10068000C0060AD52046AFF3008006E0D4E9012178
:1006900030209047206A401C2062381EA7F10107D5
:1006A000F4DC07E0D4E9012118F805009047206A3E
:1006B000401C2062281EA5F10105F3DC2046AFF3A3
:1006C00000802078000602D50220BDE8F0870120D6
:1006D000FBE710B5436913B1AFF3008001E0FFF70A
:1006E00057FE012010BD127800F124010A7000228B
:1006F0004A700122EDE711684FF0FF32E9E7000090
:10070000074B70B50D467B4400F077F80446284649
:1007100000F0D5F810B14FF0FF3070BD204670BD2D
:10072000937100002DE9F04791460F46804604463C
:10073000002614F8015B2DB100F052F80068405D0E
:10074000C007F6D12B2D02D02D2D18D0641E4A469D
:100750003946204600F064F827B13968A14201D13A
:10076000C7F800804FF0020471050BD54042002805
:1007700003DDFFF751FF0460A007BDE8F08746F4F2
:100780008066E4E70028F8DAFFF746FF04606FF0C0
:100790000040F2E72DE9F04115460E46040002D173
:1007A0002C6804B90BA4204600F08DF8044420788E
:1007B00070B1274631463846FFF75FFE0444207883
:1007C00010B1002004F8010B38462C60BDE8F08120
:1007D0000027F9E700000000004870473C62002055
:1007E00010B500F0A3F8001D10BD00BF258000006B
:1007F00001694A1C02610878704700B58FB0CDE9E5
:1008000001310021059105497944CDE903101146D4
:100810006846FFF789FD0FB000BD0000E5FFFFFF50
:100820002DE9F05F824615468B4600270AF1010448
:10083000B9460078302801D09DB113E014F8010BBF
:100840000127782803D0582801D045B10AE00DB11E
:10085000102D07D1002714F8010B102502E0082500
:1008600000E00A250026B0460EE005FB080005FB67
:1008700006F101271FFA80F801EB1046B6F5803F1C
:1008800000D3B94614F8010B294600F053F80028AC
:10089000EBDABBF1000F05D00FB1641E00E0544647
:1008A000CBF80040B9F1000F06D0FFF7B5FE0221EA
:1008B0000160C81EBDE8F09F48EA0640FAE7007BE9
:1008C00000F08000704730B503461D783DB10A4600
:1008D00012F8014B1CB1AC42FAD15B1CF5E7181AB7
:1008E00030BD7546FFF778FFAE46050069465346B2
:1008F00020F00700854618B020B5FFF7F5FCBDE8ED
:1009000020404FF000064FF000074FF000084FF076
:10091000000B21F00701AC46ACE8C009ACE8C00907
:10092000ACE8C009ACE8C0098D4670470048704784
:100930005C6200203A2800D2303820F02002412AA0
:1009400001D3A2F13700884201D34FF0FF30704746
:1009500010B50446AFF300802046BDE81040FFF715
:1009600062BC000070B5002417E0E1B2032006F07D
:100970004DFE022500BF00200A49087003213420E3
:1009800006F05AFE052006F082FF0648007800B106
:1009900070BD6D1E002DEED1641C7F2CE5DB00BF09
:1009A000F6E700004800002000BFFEE710B504464F
:1009B0000021204608F0D8FA01D8204610BD84F066
:1009C0000040FBE770B504460D46002C02DD6019BF
:1009D00004B203E0002C01DA601B04B25022514241
:1009E000204600F015F870BD70B506460D46144659
:1009F0002146304608F0B8FA01D2204670BD29469B
:100A0000304608F0B1F901D22846F7E73046F5E75D
:100A10000346934201DD104670478B4201DA0846D7
:100A2000FAE71846F8E7000000200249087002497A
:100A30000860704710000020140000202DE9F041EC
:100A40001948007830B919488068194908600120B0
:100A500015490870154881681548006808F0B6FA0D
:100A6000064600F03FF8044612488168124808F034
:100A7000AFF907462146114808F0AAF980463946E1
:100A800008F0A4FA06460E4908F0A2F905460D4AF8
:100A90000D492846FFF7A8FF0546284608F0FCF850
:100AA00000B2BDE8F081000010000020400A0020E4
:100AB00014000020340A00208FC2F53D666606400F
:100AC000000080BF00004041000040C110B5002080
:100AD0000349088048808880C880FFF7A5FF10BDC3
:100AE0005C00002010B5044604E00B49204608F0E5
:100AF0006DFA04460949204608F036FAF5D304E0B9
:100B00000549204607F098FF04460549204608F0AD
:100B10002BF9F5D3204610BD0000B4430000344348
:100B2000000034C32DE9F0410646FFF787FF044675
:100B3000502251423046FFF76BFF05466F42274473
:100B40003BB22F1B3AB22F1939B26F423F1B38B25A
:100B500000F0ACF8BDE8F0812DE9F0410646FFF762
:100B60006DFF0446502251423046FFF751FF0546C3
:100B70006F4227443BB26F423F1B3AB22F1939B242
:100B80002F1B38B200F092F8BDE8F08170B51C4818
:100B9000007818B11B480078012801D000F0B2F8A5
:100BA0001948007818B100F0E5F8012070BD174928
:100BB00088681749096808F009FA0646FFF792FFA6
:100BC00004462046FFF7F2FE05461249284608F083
:100BD000CBF803D21E2000F0DBF80EE00E492846C9
:100BE00008F0C2F803D2122000F0D2F805E000F0BD
:100BF000C1F8012004490870D8E70020D6E70000BA
:100C0000180000201A00002019000020400A0020CF
:100C10001C0000200000164333B3314370B51C485C
:100C2000007820B11B4890F90000401C08B100F08A
:100C300085F81948007818B100F09CF8012070BDC3
:100C4000164988681649096808F0C0F90646FFF792
:100C500049FF04462046FFF7A9FE054611492846EC
:100C600008F082F803D21E2000F0A2F80EE00E4930
:100C7000284608F079F803D2122000F099F805E030
:100C800000F078F8012004490870D8E70020D6E782
:100C9000180000201A00002019000020400A00203F
:100CA0001C0000200000164333B331432DE9F0410E
:100CB00007460C4615461E461148B0F90010384646
:100CC000FFF780FE07460E48B0F902102046FFF7F6
:100CD00079FE04460A48B0F904102846FFF772FE70
:100CE00005460748B0F906103046FFF76BFE06468A
:100CF00033462A462146384604F0B6FBBDE8F0816B
:100D0000B690000810B508488068084908600120BE
:100D1000074908700020074908700120064908703B
:100D2000FFF782FE10BD0000400A00201C000020DA
:100D300018000020190000201A00002010B50848F3
:100D400080680849086001200749087000200749A9
:100D50000870FF2006490870FFF766FE10BD00000E
:100D6000400A00201C00002018000020190000206C
:100D70001A00002010B500200449088048808880AF
:100D8000C880FFF751FE04F09FFB10BD5C000020FF
:100D900010B5044600200549088048808880C88036
:100DA000FFF742FE204604F097FB10BD5C000020D8
:100DB00010B5044600200549088048808880C88016
:100DC000FFF732FE204604F092FB10BD5C000020CD
:100DD00010B500222EE0362806D039280BD03C284A
:100DE00010D03F281CD114E0144B1B7843F00103B2
:100DF000124C23701BE0114B1B7843F002030F4C85
:100E0000237014E00D4B1B7843F008030B4C237048
:100E10000DE00A4B1B7843F00403084C237006E0F6
:100E2000064B1B7843F08003044C237000BF00BFC7
:100E3000401C521C8A42CED310BD00004800002046
:100E400010B5024800F0A2F910BD000038110020D2
:100E500030B590F840500124AC40C56B6C6004681C
:100E600063604468102C04D10468A2600468E160E7
:100E700003E00468A1600468E26030BD704710B50B
:100E8000102000F007FC10BD10B5202000F002FC7F
:100E900010BD00007FB504460F48047000F0AEFDA1
:100EA0000E490860204604F0CDFB05460C4800784A
:100EB0000C4909780C4A12780C4B1B88CDE900329A
:100EC000CDE902100A4803880A48027829460A48F0
:100ED000FFF71EFA7FBD00006400002080000020A4
:100EE0007E0000206F0000206E0000206C000020BB
:100EF0006800002065000020B093000872B600BFB3
:100F0000FEE70146002291F82100022808D00420C3
:100F1000886300BF002081F8200000BF01207047D7
:100F20000868006820F00E000B6818600868006808
:100F300020F001000B68186091F8403001209840C3
:100F4000CB6B5860012081F8210000BF002081F8A0
:100F5000200000BF1046E2E770B50446002594F873
:100F60002100022803D00420A0630125C1E02068ED
:100F7000006820F00E00216808602068006820F0FA
:100F80000100216808605C492068884252D95A49AA
:100F900078392068884201D1012047E056496439F8
:100FA0002068884201D1102040E053495039206820
:100FB000884201D1801539E04F493C392068884288
:100FC00001D1801432E04C4928392068884202D18E
:100FD0004FF480302AE0484914392068884202D111
:100FE0004FF4801022E044492068884201D1400437
:100FF0001CE042492068884201D1012016E03F49A7
:1010000014312068884201D110200FE03B4928317B
:101010002068884201D1801508E038493C312068B9
:10102000884201D1801401E04FF480303349091F18
:10103000086051E0304978392068884201D10120A8
:1010400047E02D4964392068884201D1102040E0F2
:10105000294950392068884201D1801539E0264954
:101060003C392068884201D1801432E02249283975
:101070002068884202D14FF480302AE01E4914399A
:101080002068884202D14FF4801022E01A4920687B
:10109000884201D140041CE018492068884201D1EF
:1010A000012016E0154914312068884201D1102032
:1010B0000FE0124928312068884201D1801508E0EC
:1010C0000E493C312068884201D1801401E04FF480
:1010D0008030094980394860012084F8210000BF30
:1010E000002084F8200000BF606B10B12046616BC7
:1010F0008847284670BD0000800002400804024076
:10110000014609B9012070470868006820F0010015
:101110000A68106000200A6810600A6850600A6857
:1011200090600A68D060174A086890420BD2164A4D
:101130000868801A1422B0FBF2F08000086412489C
:101140000838C8630AE00F4A0868801A1422B0FB06
:10115000F2F0800008640B480838C86391F840201A
:1011600001209040CA6B506000208862C86208630A
:101170004863886381F8210000BF81F8200000BF28
:1011800000BFC0E7080402400800024070B50446F2
:10119000E06B05682068066894F8401004208840D9
:1011A0002840002875D006F004000028FAD02068F6
:1011B000006800F0200028B92068006820F00400D2
:1011C00021680860D5492068884254D9D3497839C4
:1011D0002068884201D1042049E0D0496439206860
:1011E000884201D1402042E0CC49503920688842F1
:1011F00001D100153BE0C9493C392068884202D141
:101200004FF4804033E0C54928392068884202D134
:101210004FF480202BE0C14914392068884202D164
:101220004FF4800023E0BD492068884201D1C0040A
:101230001DE0BB492068884201D1042017E0B8496D
:1012400014312068884201D1402010E0B44928318F
:101250002068884201D1001509E0B1493C3120687D
:10126000884202D14FF4804001E04FF48020AC4925
:10127000091F086054E0A94978392068884201D1E3
:1012800004204AE0A54964392068884202D1402000
:1012900043E04CE0A14950392068884201D1001553
:1012A0003BE09E493C392068884202D14FF480409F
:1012B00033E09A4928392068884202D14FF48020CF
:1012C0002BE0964914392068884202D14FF48000FF
:1012D00023E092492068884201D1C0041DE0904972
:1012E0002068884201D1042017E08D49143120681C
:1012F000884201D1402010E0894928312068884285
:1013000001D1001509E086493C312068884202D1AC
:101310004FF4804001E04FF48020804980394860DC
:10132000E06A002802D02046E16A8847F4E094F899
:101330004010022088402840002871D006F00200AA
:101340000028FAD02068006800F0200040B920682A
:10135000006820F00A0021680860012084F821005C
:101360006E492068884254D96C497839206888428F
:1013700001D1022049E0694964392068884201D1DD
:10138000202042E0654950392068884201D140154B
:101390003BE062493C392068884202D14FF400505A
:1013A00033E05E4928392068884202D14FF400308A
:1013B0002BE05A4914392068884202D14FF40010BA
:1013C00023E056492068884201D180041DE0544939
:1013D0002068884201D1022017E051491431206869
:1013E000884201D1202010E04D49283120688842F0
:1013F00001D1401509E04A493C312068884202D1B8
:101400004FF4005001E04FF400304549091F0860D7
:1014100054E0424978392068884202D102204AE0EB
:1014200057E03E4964392068884201D1202042E0DB
:101430003A4950392068884201D140153BE037498C
:101440003C392068884202D14FF4005033E03349E0
:1014500028392068884202D14FF400302BE02F4910
:1014600014392068884202D14FF4001023E02B4940
:101470002068884201D180041DE029492068884203
:1014800001D1022017E0264914312068884201D199
:10149000202010E0224928312068884201D14015DF
:1014A00009E01F493C312068884202D14FF40050C6
:1014B00001E04FF4003019498039486000BF002036
:1014C00084F8200000BFA06A30B32046A16A884794
:1014D00022E094F84010082088402840E0B106F04F
:1014E0000800C8B12068006820F00E00216808607C
:1014F00094F8401001208840E16B48600120A0630F
:1015000084F8210000BF002084F8200000BF206B79
:1015100010B12046216B884770BD0000800002405A
:10152000080402400146002209B9012070471E4B01
:10153000086898420BD21D4B0868C01A1423B0FBF0
:10154000F3F08000086419480838C8630AE0164BB5
:101550000868C01A1423B0FBF3F080000864124836
:101560000838C863022081F821000868026843F641
:10157000F0708243D1E901031843CB6818430B692B
:1015800018434B6918438B691843CB6918430243CE
:101590000868026000208863012081F82100002093
:1015A00081F8200000BFC1E70804024008000240A3
:1015B0002DE9F04104460D4616461F464FF000083F
:1015C00000BF94F82000012802D10220BDE8F0817C
:1015D000012084F8200000BF94F8210001282CD1BC
:1015E000022084F821000020A0632068006820F019
:1015F0000100216808603B46324629462046FFF735
:1016000027FCE06A30B12068006840F00E002168D5
:1016100008600BE02068006820F004002168086082
:101620002068006840F00A002168086020680068AF
:1016300040F001002168086006E000BF002084F847
:10164000200000BF4FF002084046BFE770B50446D7
:1016500000F0D4F906462546681C10B1044800780D
:10166000054400BF00F0CAF9801BA842FAD370BD40
:10167000BC000020102803D10121044A117004E0AD
:10168000202802D10121024A117070477100002008
:101690007000002010B5044604480068204020B1C6
:1016A000024804602046FFF7E5FF10BD1404014026
:1016B0002DE9F847024600239C467BE14FF00108E4
:1016C00008FA03F4D1F8008008EA0400A0427DD1B2
:1016D000DFF8F4A2D1F80480A8EB0A09D0453AD08B
:1016E00014DCB8F1030F50D009DCB8F1000F31D091
:1016F000B8F1010F1CD0B8F1020F49D120E0B8F1C8
:10170000110F18D0B8F1120F42D11EE0B9F5881FA1
:1017100025D006DCB9F5803F20D0B9F5801F37D140
:101720001AE0B9F5001F18D0B9F5041F30D117E041
:10173000D1F80CC02DE0D1F80C8008F1040C28E0A1
:10174000D1F80C8008F1080C23E0D1F80C8008F1E6
:101750000C0C1EE000BF00BF00BF00BF00BF00BFF9
:10176000D1F80880B8F1000F02D14FF0040C0BE063
:10177000D1F80880B8F1010F03D14FF0080C1461C3
:1017800002E04FF0080C546103E04FF0000C00E061
:1017900000BF00BFFF2801D8904601E002F1040815
:1017A0004646FF2802D84FEA830803E0A3F1080861
:1017B0004FEA88084746D6F800804FF00F0909FA2B
:1017C00007F928EA09080CFA07F900E07AE048EA84
:1017D0000908C6F80080D1F8048008F08058B8F1F4
:1017E000805F6FD100BFDFF8E481D8F8188048F03F
:1017F0000108DFF8D891C9F81880C846D8F81880D1
:1018000008F00108CDF8008000BF00BF4FEAB938EA
:101810004FEA930958F829504FEA83784FEA18792C
:101820004FF00F0808FA09F825EA0805DFF8A0814B
:10183000424502D14FF0000824E0DFF8988142458C
:1018400002D14FF001081DE0DFF88C81424502D142
:101850004FF0020816E0DFF88481424502D14FF0D4
:1018600003080FE0DFF87881424502D14FF0040809
:1018700008E0DFF87081424502D14FF0050801E031
:101880004FF006084FEA83794FEA197908FA09F808
:1018900048EA0505DFF850814FEA930948F82950D6
:1018A000D1F8048008F48018B8F5801F0BD1DFF858
:1018B0003C81D8F8008048EA0008DFF83091C9F888
:1018C00000800AE075E0DFF82481D8F8008028EA7B
:1018D0000008DFF81891C9F80080D1F8048008F4F6
:1018E0000018B8F5001F0ED1DFF8008108F10408D8
:1018F000D8F8008048EA0008DFF8F09009F1040900
:10190000C9F800800DE0DFF8E48008F10408D8F899
:10191000008028EA0008DFF8D49009F10409C9F82A
:101920000080D1F8048008F40038B8F5003F0ED1EB
:10193000DFF8B880A8F10408D8F8008048EA000869
:10194000DFF8A890A9F10409C9F800800DE0DFF8DC
:101950009C80A8F10408D8F8008028EA0008DFF885
:101960008C90A9F10409C9F80080D1F8048008F42A
:101970008038B8F5803F0ED1DFF87080A8F10808F4
:10198000D8F8008048EA0008DFF86090A9F108095B
:10199000C9F800800DE0DFF85480A8F10808D8F8F5
:1019A000008028EA0008DFF84490A9F10809C9F886
:1019B00000805B1CD1F8008028FA03F8B8F1000F12
:1019C0007FF47CAEBDE8F8870000111000100240E3
:1019D00000080140000C01400010014000140140CB
:1019E00000180140001C01400800014008040140AB
:1019F0000AB1016101E00B0403617047014800680E
:101A000070470000B400002070B504460CB90120F6
:101A100070BD94F83D0028B9002084F83C002046B1
:101A200000F046FB242084F83D002068006820F088
:101A30000100216808602068006840F400402168C7
:101A400008602068006820F400402168086000F009
:101A5000BFFD05465C496068884206D85B48854200
:101A600001D2012007E0002005E05948854201D25B
:101A7000012000E00020012800D1C9E75548B5FB4E
:101A8000F0F62068406820F03F003043216848604D
:101A90004D496068884201D8701C07E04FF4967089
:101AA00070434FF47A71B0FBF1F0401C2168096A71
:101AB00021F03F0108432168086243496068884279
:101AC00014D8681E61684900B0FBF1F0401CC0F3F7
:101AD0000B00042801D204203DE0681E6168490023
:101AE000B0FBF1F0401CC0F30B0034E0A06838B943
:101AF000681E616801EB4101B0FBF1F0401C0AE097
:101B0000681E616801EBC10202EB0111B0FBF1F04C
:101B1000401C40F48040C0F30B0008B901201AE0DB
:101B2000A06848B9681E616801EB4101B0FBF1F0A3
:101B3000401CC0F30B000CE0681E616801EBC102A1
:101B400002EB0111B0FBF1F0401CC0F30B0040F4BC
:101B5000804040F400402168C9694CF6FF7291430F
:101B600008432168C861D4E907010843216809686E
:101B700021F0C001084321680860D4E9031008433C
:101B80002168896848F2FF329143084321688860E0
:101B9000D4E9050108432168C96821F0FF01084321
:101BA0002168C8602068006840F001002168086072
:101BB00000202064202084F83D000020206384F869
:101BC0003E0000BF24E70000A086010080841E00C4
:101BD00000093D0040420F002DE9FE4F04460F462C
:101BE00090469946DDE90CAB0E9E00200290FFF76F
:101BF00005FF054694F83D00202872D119230122E3
:101C0000CE492046009502F0B0FD10B10220BDE89B
:101C1000FE8F00BF94F83C00012801D10220F6E7B6
:101C2000012084F83C0000BF2068006800F001003B
:101C300028B92068006840F0010021680860206829
:101C4000006820F4006021680860222084F83D00CC
:101C5000402084F83E0000202064C4F824A0A4F8AA
:101C60002AB0608D2085B648E0624B464246394630
:101C70002046CDE9006502F025FC08B10120C6E749
:101C8000208D88B900BF0020019020684069019034
:101C900020688069019000BF00BF2068006840F4A0
:101CA0000070216808604BE0208D01281AD120685F
:101CB000006820F480602168086072B600BF0020D0
:101CC000019020684069019020688069019000BF00
:101CD00000BF2068006840F400702168086062B6A8
:101CE0002EE029E1208D022819D12068006840F4F7
:101CF00000602168086072B600BF00200190206873
:101D00004069019020688069019000BF00BF206891
:101D1000006820F480602168086062B610E02068E6
:101D2000006840F480602168086000BF00200190D6
:101D300020684069019020688069019000BF00BF61
:101D4000EBE0208D03287DD8208D012815D12A466F
:101D50003146204602F0E5FD08B1012057E7206832
:101D60000069616A0870606A401C6062208D401ED4
:101D70002085608D401E6085CFE0208D02282CD10B
:101D8000334600226F492046009502F0EEFC08B170
:101D900001203CE772B62068006840F400702168BA
:101DA000086020680069616A0870606A401C6062AF
:101DB000208D401E2085608D401E608562B62068A3
:101DC0000069616A0870606A401C6062208D401E74
:101DD0002085608D401E60859FE033460022594972
:101DE0002046009502F0C1FC08B101200FE72068F1
:101DF000006820F480602168086072B6206800697D
:101E0000616A0870606A401C6062208D401E2085F7
:101E1000608D401E60854C4800681921B0FBF1F0D0
:101E20004FF47A71B0FBF1F0C0EBC00000EB800022
:101E3000029000BF0298401E02900298A8B90020AC
:101E4000206300E039E0202084F83D00002084F881
:101E50003E00206C40F02000206462B600BF0020ED
:101E600084F83C0000BF0120D1E620684069C0F33F
:101E700080000028DED02068006840F400702168EF
:101E8000086020680069616A0870606A401C6062CE
:101E9000208D401E2085608D401E608562B62068C2
:101EA0000069616A0870606A401C6062208D401E93
:101EB0002085608D401E60852FE02A4631462046F1
:101EC00002F02FFD08B10120A1E620680069616AD7
:101ED0000870606A401C6062208D401E2085608D05
:101EE000401E608520684069C0F38000A8B1208D45
:101EF000032805D12068006820F48060216808600C
:101F000020680069616A0870606A401C6062208D08
:101F1000401E2085608D401E6085208D00287FF446
:101F200010AF202084F83D00002084F83E0000BF60
:101F300084F83C0000BF6AE6022068E60200100058
:101F40000000FFFF04000100C00000202DE9FC5F3D
:101F500004460F4690469946DDE90CAB0E9EFFF70E
:101F60004DFD054694F83D0020287DD1192301221E
:101F70004D492046009502F0F8FB10B10220BDE863
:101F8000FC9F00BF94F83C00012801D10220F6E735
:101F9000012084F83C0000BF2068006800F00100C8
:101FA00028B92068006840F00100216808602068B6
:101FB000006820F4006021680860212084F83D005A
:101FC000402084F83E0000202064C4F824A0A4F837
:101FD0002AB0608D20853548E0624B46424639463E
:101FE0002046CDE9006502F01DFB08B10120C6E7DF
:101FF00031E02A463146204602F0D8FC50B1206C30
:10200000042805D12068006840F400702168086049
:102010000120B4E7606A007821680861606A401CAA
:102020006062208D401E2085608D401E6085206886
:102030004069C0F3800070B1208D60B1606A0078A3
:1020400021680861606A401C6062208D401E208506
:10205000608D401E6085208D0028CAD12A463146F9
:10206000204602F04FFB00E01CE050B1206C042839
:1020700005D12068006840F40070216808600120E4
:102080007DE72068006840F4007021680860202027
:1020900084F83D00002084F83E0000BF84F83C0036
:1020A00000BF6CE702206AE7020010000000FFFF9B
:1020B00010B586B00446002002900390049005906D
:1020C0003049206888422FD100BF2F48806940F0F6
:1020D00008002D4988610846806900F008000190D9
:1020E00000BF00BF4FF44070029012200390032005
:1020F000059002A92548FFF7DBFA00BF244948688C
:1021000040F0E06040F00200486000BF00BF1E48A1
:10211000C06940F400101C49C8610846C06900F459
:102120000010019000BF2AE01A492068884226D199
:1021300000BF1548806940F00800134988610846CF
:10214000806900F00800019000BF00BF4FF44060BC
:102150000290122003900320059002A90B48FFF77C
:10216000A7FA00BF0848C06940F480000649C8616A
:102170000846C06900F48000019000BF00BF06B0AF
:1021800010BD00000054004000100240000C01404F
:1021900000000140005800400348006803490978E6
:1021A0000844014908607047B4000020BC000020CA
:1021B00010B50848006840F0100006490860032088
:1021C00000F004F90F2000F007F800F05FF800209D
:1021D00010BD0000002002402DE9F04188B0044607
:1021E0000027B846002600BF2348C06940F0100011
:1021F0002149C8610846C06900F01000019000BF85
:1022000000BF02A903A800F0BBF9069F1FB900F0A8
:10221000DFF9054602E000F0DBF945001748B5FBA1
:10222000F0F0A0F1010816481649086040F2E731C5
:102230001448C160C0F8048000210161816081619F
:1022400000F016FD064696B90E4800F0D1FD064690
:102250006EB9362000F06CF8102C07D2002221460F
:10226000362000F075F80848046000E0012630468A
:1022700008B0BDE8F08100000010024040420F00AD
:1022800000100040E4120020B800002008B500BF94
:102290001448806940F0010012498861084680694D
:1022A00000F00100009000BF00BF00BF0846C069F9
:1022B00040F08050C8610846C06900F0805000902E
:1022C00000BF00BF00220F21901E00F041F800BFA8
:1022D0000549486820F0E06040F00070486000BFA9
:1022E00008BD0000001002400000014010B501468A
:1022F0000846002817DB00F01F0301229A400B4B11
:10230000440943F8242000BF00BF00BFBFF34F8F34
:1023100000BF00BF00BF00BF00BF00BFBFF36F8F93
:1023200000BF00BF00BF00BF10BD000080E100E0A3
:1023300001460846002809DB00F01F0301229A40ED
:1023400043099B0003F1E023C3F8002100BF70475D
:102350002DE9F05F80460D461646002705F07AFA13
:10236000074639462A46334601F00700C0F1070AFE
:10237000BAF1040F02D94FF0040A01E0C0F1070AD4
:10238000D14600F1040ABAF1070F02D24FF0000A59
:1023900001E0A0F1030AD4464FF0010A0AFA09FA53
:1023A000AAF1010A0AEA020A0AFA0CFA4FF0010B32
:1023B0000BFA0CFBABF1010B0BEA030B4AEA0B0423
:1023C0002146404605F04EFABDE8F09F00BF00F000
:1023D0000702064B19684FF6FF031940044B0B43E5
:1023E00043EA0221014B196000BF70470CED00E089
:1023F0000000FA0570B504460D460CB9012070BD09
:102400005A48006800F00700A8420ED257480068FA
:1024100020F007002843554908600846006800F08E
:102420000700A84201D00120E9E7207800F002006F
:1024300002281DD1207800F00400042805D14C4862
:10244000406840F4E0604A494860207800F00800A5
:10245000082805D14648406840F460504449486027
:102460004348406820F0F000A168084340494860B4
:10247000207800F0010078B36068012806D13C485C
:10248000006800F4003090B90120B8E760680228C5
:1024900006D13748006800F0007040B90120AEE76F
:1024A0003348006800F0020008B90120A7E730486F
:1024B000406820F00300616808432D494860FFF739
:1024C0009DFA064609E0FFF799FA801B41F2883130
:1024D000884202D9032092E707E02548406800F0CF
:1024E0000C006168B0EB810FEDD12048006800F06E
:1024F0000700A8420ED91D48006820F007002843B5
:102500001A4908600846006800F00700A84201D098
:10251000012074E7207800F00400042807D1144853
:10252000406820F4E060E168084311494860207881
:1025300000F00800082808D10D48406820F46050D9
:10254000216940EAC1000A49486000F061F8084981
:102550004968C1F30311074A515CC8400649086045
:1025600006480068FFF738FE002048E700200240D8
:102570000010024096930008C0000020B800002020
:102580000F2202600D4A526802F0030242600B4AB9
:10259000526802F0F0028260084A526802F4E06277
:1025A000C260064A526802F46052D2080261044ACC
:1025B000126802F007020A60704700000010024033
:1025C000002002400148006870470000C000002061
:1025D00000B5FFF7F7FF04494968C1F30221034A38
:1025E000515CC84000BD000000100240A6930008E6
:1025F00000B5FFF7E7FF04494968C1F3C221034A68
:10260000515CC84000BD000000100240A6930008C5
:1026100070B500210022002400230020134D6968BA
:1026200001F00C05F5B1042D02D0082D19D101E0FF
:102630000F4819E00F4DC1F38346AB5D01F48035BF
:1026400055B10A4D6D68C5F340450B4E725D084D9E
:102650005D43B5FBF2F402E0084D03FB05F42046B0
:1026600002E000BF024800BF00BF70BD0010024082
:1026700000127A00849300089493000800093D003A
:10268000F8B504460CB90120F8BD207800F001002F
:10269000002878D0F848406800F00C0004280CD0DE
:1026A000F548406800F00C00082811D1F248406855
:1026B00000F48030B0F5803F0AD1EF48006800F4A4
:1026C000003000285FD0606800285CD10120DBE783
:1026D00000BF6068B0F5803F06D1E748006840F46D
:1026E0008030E549086028E0606858B9E248006831
:1026F00020F48030E04908600846006820F480201B
:1027000008601AE06068B0F5A02F0BD1DA480068C5
:1027100040F48020D84908600846006840F48030C2
:1027200008600AE0D448006820F48030D24908608C
:102730000846006820F48020086000BF606888B107
:10274000FFF75CF9054606E0FFF758F9401B6428DF
:1027500001D9032098E7C848006800F40030002839
:10276000F2D010E0FFF74AF9054606E0FFF746F918
:10277000401B642801D9032086E7BF48006800F4A5
:1027800000300028F2D1207800F00200022857D152
:10279000B948406800F00C0050B1B748406800F0FC
:1027A0000C00082818D1B448406800F4803098B96B
:1027B000B148006800F0020020B12069012801D072
:1027C000012061E7AC48006820F0F800616940EA48
:1027D000C100A949086033E02069E8B10120A74998
:1027E0000860FFF70BF9054606E0FFF707F9401B05
:1027F000022801D9032047E79F48006800F0020043
:102800000028F2D09C48006820F0F800616940EA96
:10281000C1009949086013E0002098490860FFF75B
:10282000EDF8054606E0FFF7E9F8401B022801D95C
:10283000032029E79048006800F002000028F2D148
:10284000207800F0080008282DD1A069B8B1012037
:102850008B490860FFF7D2F8054606E0FFF7CEF88F
:10286000401B022801D903200EE78348406A00F08C
:1028700002000028F2D0012002F046FE13E0002002
:102880007F490860FFF7BAF8054606E0FFF7B6F89B
:10289000401B022801D90320F6E67748406A00F081
:1028A00002000028F2D1207800F00400042873D13F
:1028B00000277148C06900F0805070B900BF6E48B1
:1028C000C06940F080506C49C8610846C06900F09A
:1028D0008050009000BF00BF01276A48006800F4E4
:1028E0008070B0B96748006840F48070654908603E
:1028F000FFF784F8054606E0FFF780F8401B6428E0
:1029000001D90320C0E65F48006800F48070002809
:10291000F2D000BFE068012806D15748006A40F0B5
:1029200001005549086227E0E06858B95248006A3A
:1029300020F00100504908620846006A20F00400B7
:10294000086219E0E06805280BD14B48006A40F0A6
:102950000400494908620846006A40F00100086224
:102960000AE04548006A20F0010043490862084631
:10297000006A20F00400086200BFE068A0B1FFF721
:102980003DF8054609E0FFF739F8401B41F2883170
:10299000884202D9032077E622E03748006A00F037
:1029A00002000028EFD012E0FFF728F8054608E003
:1029B000FFF724F8401B41F28831884201D90320F7
:1029C00062E62D48006A00F002000028F0D1012FD5
:1029D00005D12948C06920F080502749C86100BF4F
:1029E000E069C8B32448406800F00C00082860D0B3
:1029F000E069022848D1002020490866FEF7FEFF62
:102A0000054606E0FEF7FAFF401B022801D9032025
:102A10003AE61948006800F000700028F2D1206AF8
:102A2000B0F5803F07D11448406820F40030A16819
:102A3000084311494860D4E9080108430E49496830
:102A400021F4741108430C49486001200B490866C1
:102A5000FEF7D4FF054607E03DE0FEF7CFFF401B41
:102A6000022801D903200FE60348006800F0007037
:102A70000028F2D02FE00000001002400000424287
:102A80008004424200700040002014490866FEF7AE
:102A9000B5FF054606E0FEF7B1FF401B022801D94D
:102AA0000320F1E50E48006800F000700028F2D124
:102AB00011E0E069012800D1E6E50948466806F41E
:102AC0008031206A814204D106F47011606A81422B
:102AD00001D00120D8E50020D6E5000000004242E8
:102AE000001002407047704710B50346002200BF37
:102AF00093F83C00012801D1022010BD012083F889
:102B00003C0000BF22F0FF00CC6840EA040222F43F
:102B100040708C6840EA040222F480604C6840EA0D
:102B2000040222F400600C6840EA040222F480509F
:102B30000C6940EA040222F400504C6940EA0402A5
:102B400022F48040CC6940EA04021868426400BF65
:102B5000002083F83C0000BF00BFCEE730B502463E
:102B60000B4600BF92F83C00012801D1022030BD85
:102B7000012082F83C0000BF022082F83D0010686E
:102B800044681068816824F0700418680443106871
:102B90004460144D1068A84213D0134D1068A84229
:102BA0000FD01068B0F1804F0BD0104D1068A842C4
:102BB00007D00F4D1068A84203D00E4D1068A842F0
:102BC00005D121F08001586801431068816001201F
:102BD00082F83D0000BF002082F83C0000BF00BF2B
:102BE000C5E70000002C0140003401400004004013
:102BF00000080040000C004010B50446022084F894
:102C00003D0000BF2068006A41F21111084050B930
:102C10002068006A8910084028B92068006820F000
:102C200001002168086000BF204600F055F8002030
:102C300084F8460000BF84F83E0000213F20015583
:102C4000402001554120015500BF00BF002084F8FD
:102C5000420043200155442001554520015500BF45
:102C6000002084F83D0000BF84F83C0000BF10BD88
:102C700010B504460CB9012010BD94F83D0028B9E8
:102C8000002084F83C00204600F050F8022084F830
:102C90003D00211D206803F0E9F9012084F8460079
:102CA00000BF84F83E0001213F200155402001551E
:102CB0004120015500BF00BF012084F8420043209D
:102CC0000155442001554520015500BF012084F8DD
:102CD0003D000020D0E7000010B5044610492068F0
:102CE000884209D10F48806920F400600D4988614D
:102CF0001920FFF7FBFA12E00B49206888420ED139
:102D00000848806920F4005006498861E06AFEF7AF
:102D1000F7F9206AFEF7F4F92C20FFF7E7FA10BD67
:102D2000002C0140001002400034014038B5044638
:102D30002A492068884216D100BF2948806940F49A
:102D40000060274988610846806900F400600090AF
:102D500000BF00BF002205211920FFF7F9FA192052
:102D6000FFF7E6FA39E01F492068884235D100BFF5
:102D70001B48806940F40050194988610846806901
:102D800000F40050009000BF00BF174817490860CA
:102D9000102048600021154881608021C1604900F1
:102DA00001618900416100218161C161FEF7BAFBC7
:102DB00008B1FEF7A3F800BF0C49E162084644627F
:102DC00000BF00BF2062446200BF002205212C200A
:102DD000FFF7BEFA2C20FFF7ABFA38BD002C0140FC
:102DE0000010024000340140080402403811002065
:102DF000014691F83D00012801D0012070470220D2
:102E000081F83D000868C06840F001000B68D86098
:102E1000164B0868984213D0154B086898420FD09B
:102E20000868B0F1804F0BD0124B0868984207D069
:102E3000114B0868984203D0104B086898420CD197
:102E40000868806800F00702062A0CD0086800684D
:102E500040F001000B68186005E00868006840F069
:102E600001000B6818600020C8E70000002C01403A
:102E7000003401400004004000080040000C004005
:102E80002DE9F04104460D46002700BF94F83C00B0
:102E9000012802D10220BDE8F081012084F83C0025
:102EA00000BF022084F83D002068866826F077067F
:102EB00026F47F46206886602868502833D00CDCD2
:102EC000202850D004DC00284BD0102851D149E0F4
:102ED000302849D040284CD139E060282DD07028C6
:102EE00007D0B0F5805F03D0B0F5005F41D10DE0B1
:102EF00041E0D5E902136A68206803F0A1F920686F
:102F0000866846F077062068866034E0D5E90213CB
:102F10006A68206803F094F92068806840F4804073
:102F20002168886027E0EA686968206803F078FA19
:102F30005021206803F08FF91DE0EA686968206875
:102F400003F081FA6021206803F085F913E0EA6854
:102F50006968206803F064FA4021206803F07BF977
:102F600009E000BF00BF00BF2968206803F073F9C3
:102F700001E0012700BF00BF012084F83D0000BF31
:102F8000002084F83C0000BF384684E72DE9F0417A
:102F900004460D4614B90120BDE8F08194F83D00C7
:102FA00028B9002084F83C00204600F051F80220A7
:102FB00084F83D002068806844F207018843216856
:102FC0008860211D206803F051F82068D0F808803F
:102FD000206886692068076A286840EA080840F285
:102FE00003308643A969A86840EA0120064340F6F9
:102FF0000C4086434FF2F0008643E969E86840EAF6
:103000000120064328690001296A40EA013006438D
:1030100027F022076969686840EA011007432068C1
:10302000C0F808802068866120680762012084F863
:10303000460084F83E0001213F200155012084F81C
:10304000420043200155012084F83D000020A3E701
:1030500010B586B0044600200290039004900590BD
:103060002068B0F1804F45D100BF7248C06940F080
:1030700001007049C8610846C06900F00100019074
:1030800000BF00BF00BF0846806940F004008861AF
:103090000846806900F00400019000BF00BF00BF37
:1030A0000846806940F0080088610846806900F0A1
:1030B0000800019000BF00BF4FF4004002900020C4
:1030C0000390049002A95C48FEF7F2FA08200290EF
:1030D00000200390049002A95848FEF7E9FA00BFC7
:1030E0005749486820F4407040F0E06040F4807038
:1030F00048609CE053492068884237D100BF4D4862
:10310000C06940F002004B49C8610846C06900F040
:103110000200019000BF00BF00BF0846806940F078
:10312000080088610846806900F00800019000BF2F
:1031300000BF3020029000200390049002A93F4875
:10314000FEF7B6FA00BF3E49486820F4406040F000
:10315000E06040F40060486000BF002205211D20AF
:10316000FFF7F6F81D20FFF7E3F860E03649206826
:1031700088422CD100BF2F48C06940F004002D497F
:10318000C8610846C06900F00400019000BF00BF9C
:1031900000BF0846806940F00800886108468069E1
:1031A00000F00800019000BF00BFC0200290002086
:1031B0000390049002A92148FEF77AFA0022052123
:1031C0001E20FFF7C5F81E20FFF7B2F82FE01F49B9
:1031D000206888422BD100BF1648C06940F0080023
:1031E0001449C8610846C06900F00800019000BF9A
:1031F00000BF00BF0846806940F0040088610846AF
:10320000806900F00400019000BF00BF032002901D
:1032100000200390049002A90748FEF749FA002213
:1032200005213220FFF794F83220FFF781F806B02D
:1032300010BD00000010024000080140000C0140D9
:10324000000001400004004000080040000C004065
:103250002DE9F04304460D4694F83E603F20075D9B
:1032600094F84280432010F804906DB9012E02D1E9
:10327000B8F1010F02D00120BDE8F083022084F8EC
:103280003E0084F8420025E0042D0CD1012F02D12C
:10329000B9F1010F01D00120EEE702213F200155D5
:1032A0004320015516E0012E07D1012F05D1B8F1B9
:1032B000010F02D1B9F1010F01D00120DCE702209A
:1032C00084F83E0002213F200155022084F842008C
:1032D0004320015515B1042D0CD105E00122002138
:1032E000206802F019FF10E001220421206802F09A
:1032F00013FF0AE001220021206802F00DFF0122E5
:103300000421206802F008FF00BF00BF20680068A9
:1033100040F00100216808600020ADE77047704769
:1033200070B504462068C5682068066906F002008A
:10333000022819D105F00200022815D1401F21688A
:103340000861012020772068806900F0030018B12F
:103350002046FFF7E4FF05E0204600F0FBF820469A
:1033600000F0B0F90020207706F00400042819D1FD
:1033700005F00400042815D1C0432168086102202B
:1033800020772068806900F4407018B12046FFF76C
:10339000C6FF05E0204600F0DDF8204600F092F977
:1033A0000020207706F00800082819D105F0080051
:1033B000082815D1C04321680861042020772068BF
:1033C000C06900F0030018B12046FFF7A8FF05E030
:1033D000204600F0BFF8204600F074F90020207766
:1033E00006F01000102819D105F01000102815D192
:1033F000C04321680861082020772068C06900F474
:10340000407018B12046FFF78AFF05E0204600F023
:10341000A1F8204600F056F90020207706F00100C0
:1034200048B105F0010030B16FF00100216808617A
:10343000204600F0CBFB06F08000802809D105F083
:103440008000802805D1C043216808612046FFF72D
:1034500049FB06F04000402809D105F04000402813
:1034600005D1C04321680861204600F0BBFB06F08F
:103470002000202809D105F02000202805D1C043D4
:10348000216808612046FFF72EFB70BD10B586B09D
:10349000044600200290039004900590274920687C
:1034A000884222D100BF2648806940F0400024496C
:1034B00088610846806900F04000019000BF00BFAD
:1034C0004FF4D440029002200390059002A91D48B9
:1034D000FEF7EEF800BF1C49486820F0C00040F03D
:1034E000E06040F0C000486025E01849206888424C
:1034F00021D100BF1248806940F010001049886156
:103500000846806900F01000019000BF00BF8815D8
:103510000290022003900320059002A90C48FEF7B8
:10352000C7F84FF40070029002200390059002A9A2
:103530000748FEF7BDF806B010BD0000002C0140A2
:10354000001002400018014000000140003401401A
:103550000010014070472DE9F04104460D46164623
:10356000002700BF94F83C00012802D10220BDE8EA
:10357000F081012084F83C0000BF36B1042E1BD03E
:10358000082E31D00C2E5ED145E02946206802F08D
:103590006BFE2068806940F008002168886120681F
:1035A000806920F0040021688861206880692969A9
:1035B00008432168886148E02946206802F08CFEB3
:1035C0002068806940F40060216888612068806913
:1035D00020F480602168886120688069296940EA58
:1035E00001202168886130E02946206802F0B2FE9F
:1035F0002068C06940F008002168C8612068C0697F
:1036000020F004002168C8612068C0692969084366
:103610002168C86119E02946206802F0D7FE2068B9
:10362000C06940F400602168C8612068C06920F466
:1036300080602168C8612068C069296940EA01206A
:103640002168C86101E0012700BF00BF00BF002062
:1036500084F83C0000BF384689E710B504460CB931
:10366000012010BD94F83D0028B9002084F83C00EA
:10367000204600F025F8022084F83D00211D206836
:1036800002F0F4FC012084F8460000BF84F83E00FC
:1036900001213F200155402001554120015500BF27
:1036A00000BF012084F84200432001554420015509
:1036B0004520015500BF012084F83D000020D0E7DF
:1036C0007047000010B5044605492068884206D1BD
:1036D0000821204600F0F0F900202168C86310BDE1
:1036E000003401407047000070B504460D4615B91E
:1036F00094F83E000BE0042D02D13F20005D06E06F
:10370000082D02D14020005D01E04120005D01282C
:1037100001D0012070BD1DB9022084F83E000EE0EA
:10372000042D03D102213F20015508E0082D03D1CB
:1037300002214020015502E00221412001550122D1
:103740002946206802F0E8FC1F492068884203D01F
:103750001E492068884201D1012000E0002028B1E4
:103760002068406C40F40040216848641649206895
:10377000884213D01549206888420FD02068B0F1E4
:10378000804F0BD012492068884207D01149206829
:10379000884203D01049206888420CD12068806894
:1037A00000F00706062E0CD02068006840F00100EB
:1037B0002168086005E02068006840F00100216889
:1037C00008600020A6E70000002C01400034014002
:1037D0000004004000080040000C00402DE9F047C4
:1037E00004460D4616461F464FF0000815B994F8DA
:1037F0003E000BE0042D02D13F20005D06E0082DC5
:1038000002D14020005D01E04120005D022801D18D
:10381000BDE8F08715B994F83E000BE0042D02D105
:103820003F20005D06E0082D02D14020005D01E050
:103830004120005D012818D106B10FB90120E7E74A
:103840001DB9022084F83E0011E0042D03D10221AD
:103850003F2001550BE0082D03D1022140200155E6
:1038600005E002214120015501E00120D0E735B1FA
:10387000042D1FD0082D38D00C2D6CD150E05C49A0
:10388000606A81625B49606AC1625B49606A016328
:10389000216801F134023B463146606AFDF788FE3B
:1038A00008B10120B4E72068C06840F400702168C6
:1038B000C86053E04E49A06A81624E49A06AC16265
:1038C0004D49A06A0163216801F138023B46314647
:1038D000A06AFDF76DFE08B1012099E72068C06875
:1038E00040F480602168C86038E04149E06A816244
:1038F0004049E06AC1624049E06A0163216801F120
:103900003C023B463146E06AFDF752FE08B1012019
:103910007EE72068C06840F400602168C8601DE050
:103920003349206B81623349206BC1623249206B7D
:103930000163216801F140023B463146206BFDF7EF
:1039400037FE08B1012063E72068C06840F480506A
:103950002168C86002E04FF0010800BF00BFB8F165
:10396000000F42D101222946206802F0D5FB2349ED
:103970002068884203D022492068884201D1012072
:1039800000E0002028B12068406C40F4004021682D
:1039900048641A492068884213D01949206888422F
:1039A0000FD02068B0F1804F0BD0164920688842B4
:1039B00007D015492068884203D0144920688842FE
:1039C0000DD12068806800F00709B9F1060F0CD00E
:1039D0002068006840F001002168086005E0206868
:1039E000006840F0010021680860404610E70000D0
:1039F0003B610008A3610008E3610008002C01405E
:103A0000003401400004004000080040000C004069
:103A100030B504460D4600222946206802F07CFBA2
:103A200023492068884203D022492068884201D176
:103A3000012000E0002090B100BF2068006A41F240
:103A40001111084050B92068006A8910084028B94F
:103A50002068406C20F400402168486400BF00BF2B
:103A60002068006A41F21111084050B92068006ACC
:103A70008910084028B92068006820F001002168FA
:103A8000086000BF1DB9012084F83E000EE0042D3F
:103A900003D101213F20015508E0082D03D1012168
:103AA0004020015502E0012141200155002030BD98
:103AB000002C01400034014070B504460D4600263C
:103AC00035B1042D0ED0082D16D00C2D28D11DE0B7
:103AD0002068C06820F400702168C860606AFDF743
:103AE0003BFA1FE02068C06820F480602168C8604D
:103AF000A06AFDF731FA15E02068C06820F4006084
:103B00002168C860E06AFDF727FA0BE02068C0680A
:103B100020F480502168C860206BFDF71DFA01E099
:103B2000012600BF00BF002E4AD10022294620688E
:103B300002F0F2FA23492068884203D02249206823
:103B4000884201D1012000E0002090B100BF206830
:103B5000006A41F21111084050B92068006A8910CA
:103B6000084028B92068406C20F40040216848646F
:103B700000BF00BF2068006A41F21111084050B92F
:103B80002068006A8910084028B92068006820F081
:103B900001002168086000BF1DB9012084F83E00C3
:103BA0000EE0042D03D101213F20015508E0082D2E
:103BB00003D101214020015502E00121412001559E
:103BC000304670BD002C01400034014010B5044661
:103BD00003492068884201D1FEF7DEFA10BD0000DB
:103BE000001000407047F8B504460E46174694F89A
:103BF000420020282ED106B10FB90120F8BD0120C6
:103C00002063002060633A463146204602F07CFD86
:103C10000546EDB9206B012819D100BF00200090A6
:103C200020680068009020684068009000BF00BFD6
:103C300000BF00BF21680C3151E8001F41F01000A7
:103C400021680C3141E80002002AF3D100E001258F
:103C50002846D3E70220D1E7064B02689A4207D1F3
:103C6000402900D94021044A11800122034B1A70D7
:103C700070470000004800408C0000208E000020AB
:103C8000704700002DE9F84F044620680568206859
:103C9000C668206847694FF00009CA4605F00F0959
:103CA000B9F1000F0AD105F0200038B106F020006C
:103CB00020B1204602F02BFCBDE8F88FB9F1000FCF
:103CC0007BD007F0010018B906F49070002874D07A
:103CD00005F0010030B106F4807018B1606C40F05E
:103CE0000100606405F0040030B107F0010018B174
:103CF000606C40F00200606405F0020030B107F033
:103D0000010018B1606C40F00400606405F0080028
:103D100048B106F0200010B907F0010018B1606C3E
:103D200040F008006064606C002845D005F0200079
:103D300028B106F0200010B1204602F0E8FB206810
:103D40004069C0F3801A606C00F0080010B9BAF145
:103D5000000F2CD0204602F094FB2068406900F050
:103D6000400000B300BF00BF2168143151E8001FBC
:103D700021F040002168143141E80002002AF3D10B
:103D800000BFE06B50B17748E16B4863E06BFDF733
:103D9000E3F888B1E06B416B88470DE02046FFF700
:103DA0006FFF09E009E02046FFF76AFF04E02046C4
:103DB000FFF766FF002060647EE7206B012877D163
:103DC00005F01000002873D006F010000028FAD08B
:103DD00000BF0020009020680068009020684068C4
:103DE000009000BF00BF2068406900F0400000283C
:103DF0005FD0E06B006840681FFA80F8B8F1000FF0
:103E000055D0A08D404552DDA4F82E80E06B80692E
:103E1000202843D000BF00BF21680C3151E8001FAB
:103E200021F4807021680C3141E80002002AF3D1AE
:103E300000BF00BF00BF2168143151E8001F21F00E
:103E400001002168143141E80002002AF3D100BFCB
:103E500000BF00BF2168143151E8001F21F040006D
:103E60002168143141E80002002AF3D100BF20206C
:103E700084F842000020206300BF00BF21680C319D
:103E800051E8001F21F0100021680C3141E80002C8
:103E9000002AF3D100BFE06BFDF733F80220606326
:103EA000A08DE28D801A81B22046FFF7D5FE03E790
:103EB00042E0A08DE18D401A1FFA80F8E08DD0B36A
:103EC000B8F1000F37D000BF00BF21680C3151E8B6
:103ED000001F21F4907021680C3141E80002002A93
:103EE000F3D100BF00BF00BF2168143151E8001FAB
:103EF00021F001002168143141E80002002AF3D1C9
:103F000000BF202084F842000020206300BF00BFD3
:103F100021680C3151E8001F21F0100021680C319C
:103F200041E80002002AF3D100BF0220606341464D
:103F30002046FFF791FEBFE605F0800030B106F0A5
:103F4000800018B1204602F0FFFBB5E605F0400006
:103F500030B106F0400018B1204602F0C8FAABE6D6
:103F600000BFA9E66F64000810B504460CB9012033
:103F700010BDA06900B100E000BF94F8410028B96D
:103F8000002084F84000204600F02AF8242084F81D
:103F900041002068C06820F400502168C8602046B5
:103FA00002F034FB2068006920F490402168086129
:103FB0002068406920F02A00216848612068C068B4
:103FC00040F400502168C86000206064202084F81C
:103FD000410084F842000020606300BFC8E7000091
:103FE00010B586B00446002002900390049005901E
:103FF0009949206888422FD100BF9848C06940F491
:1040000000209649C8610846C06900F4002001906C
:1040100000BF00BF00BF0846806940F01000886103
:104020000846806900F01000019000BF00BF08152D
:104030000290022003900320059002A98848FDF712
:1040400037FB4FF40060029000200390049002A917
:104050008348FDF72DFBFCE08249206888423BD174
:1040600000BF7E48C06940F480107C49C8610846A2
:10407000C06900F48010019000BF00BF00BF084677
:10408000806940F0100088610846806900F01000E7
:10409000019000BF00BF00BF0846806940F02000CB
:1040A00088610846806900F02000019000BF00BFD1
:1040B00088140290022003900320059002A968480A
:1040C000FDF7F6FA0420029000200390049002A964
:1040D0006548FDF7EDFABCE064492068884237D1B5
:1040E00000BF5E48806940F480405C4988610846B2
:1040F000806900F48040019000BF00BF00BF084607
:10410000806940F0040088610846806900F004007E
:10411000019000BF00BF48150290022003900320C9
:10412000059002A95248FDF7C3FA4FF4806002904F
:1041300000200390049002A94D48FDF7B9FA00222F
:1041400005212520FEF704F92520FEF7F1F880E08F
:1041500048492068884236D100BF4048C06940F4D1
:1041600000303E49C8610846C06900F40030019043
:1041700000BF00BF00BF0846806940F004008861AE
:104180000846806900F00400019000BF00BF0420D1
:104190000290022003900320059002A93448FDF705
:1041A00087FA0820029000200390049002A930486A
:1041B000FDF77EFA002205212620FEF7C9F8262009
:1041C000FEF7B6F845E02C492068884241D100BF8F
:1041D0002248C06940F480202049C8610846C0696F
:1041E00000F48020019000BF00BF00BF0846806936
:1041F00040F0200088610846806900F020000190AE
:1042000000BF00BF88150290022003900320059094
:1042100002A91548FDF74CFA4FF4007002900020F7
:104220000390049002A91048FDF742FA00BF134919
:10423000486820F0300040F0E06040F03000486016
:1042400000BF002205212720FEF782F82720FEF775
:104250006FF806B010BD0000004C00400010024096
:10426000001001400050004000140140003801409F
:1042700000080140004400400048004000000140A8
:1042800070472DE9F84F04460E46174699464FF001
:10429000000A94F84100202850D106B117B9012036
:1042A000BDE8F88F00206064212084F84100FDF70C
:1042B000A5FB8246A784E784A068B0F5805F04D19F
:1042C000206910B90025B04602E035464FF00008DD
:1042D0001EE05346002280212046CDF8009002F0D7
:1042E00063FA20B1202084F841000320D8E745B9C3
:1042F000B8F80000C0F308002168486008F102081F
:1043000003E02878216848606D1CE08C401EE08442
:10431000E08C0028DDD15346002240212046CDF814
:10432000009002F041FA20B1202084F841000320DF
:10433000B6E7202084F841000020B1E70220AFE773
:104340007047000070B50C21342003F075F938482F
:10435000007800286AD000243AE004F13401354A9C
:1043600032F9110004F0D4FC06464FF08E4104F0FF
:10437000D1FB05464FF0834104F02AFD2E4941F858
:10438000240004F137012B4A32F9110004F0C0FC7B
:1043900006464FF08E4104F0BDFB0546274904F068
:1043A00017FD274941F8240004F13D01214A32F963
:1043B000110004F0ADFC06464FF08E4104F0AAFB5C
:1043C0000546204904F004FD1F4941F82400641CFF
:1043D000032CC2DB1648007800F0010028B1144815
:1043E000007800F0FE00124908701148007800F0D3
:1043F000020028B10E48007800F0FD000C4908705A
:104400000B48007800F0040028B10948007800F05B
:10441000FB00074908700648007800F0080028B142
:104420000348007800F0F7000149087070BD0000F3
:104430004800002006090020280A00200000FA4455
:10444000340A002000003443400A002010B55021F7
:10445000032003F0DBF80649064803F0C3F80648DA
:1044600003F0D0F9054803F0B1F8FCF77BFA10BD72
:10447000154A0008454A0008D10D00088F78000849
:1044800000BFFEE7014608684069C0F38020B0B174
:104490006FF480600A68506100200863202081F872
:1044A0003D00002081F83E00086C40F004000864E4
:1044B00000BF002081F83C0000BF012070470020B1
:1044C000FCE700002DE9F84304460F4615469946DF
:1044D000DDE908862068006840F480602168086093
:1044E0002068006840F4807021680860434600221C
:1044F0004FF001112046009600F037F960B12068B6
:10450000006800F48070B0F5807F02D14FF4007035
:1045100020640320BDE8F88307F0FE0021680861ED
:10452000334642463E49204600F07EF908B101205C
:10453000F0E700BF002000902068406900902068EC
:104540008069009000BF00BF32464146204600F01F
:104550002DFA50B1206C042805D12068006840F481
:104560000070216808600120D4E7B9F1010F03D180
:10457000E8B22168086117E0C5F3072021680861E7
:1045800032464146204600F011FA50B1206C042812
:1045900005D12068006840F400702168086001209F
:1045A000B8E7E8B22168086132464146204600F08B
:1045B000FDF950B1206C042805D12068006840F452
:1045C0000070216808600120A4E72068006840F4BA
:1045D000807021680860434600224FF00111204698
:1045E000009600F0C2F858B12068006800F48070AE
:1045F000B0F5807F02D14FF400702064032089E77A
:10460000F8B240F00100216808613346424604498F
:10461000204600F009F908B101207BE7002079E786
:10462000020001002DE9F8430446884615469946E4
:10463000DDE908672068006840F480702168086040
:10464000334600224FF001112046009700F08DF80C
:1046500060B12068006800F48070B0F5807F02D1FE
:104660004FF4007020640320BDE8F88308F0FE00DA
:10467000216808613B4632462149204600F0D4F8C3
:1046800008B10120F0E700BF0020009020684069D9
:10469000009020688069009000BF00BF3A46314614
:1046A000204600F083F950B1206C042805D1206821
:1046B000006840F40070216808600120D4E7B9F177
:1046C000010F03D1E8B22168086117E0C5F30720A4
:1046D000216808613A463146204600F067F950B13A
:1046E000206C042805D12068006840F4007021681F
:1046F00008600120B8E7E8B2216808610020B3E74C
:104700000200010070B504460D46164625E020461D
:10471000FFF7B8FE08B1012070BD681CE8B1FDF7D5
:104720006DF9801BA84200D8BDB920684069C0F36C
:10473000800090B900202063202084F83D000020F4
:1047400084F83E00206C40F02000206400BF002070
:1047500084F83C0000BF0120DEE720684069C0F318
:1047600080000028D3D00020D6E72DE9F041044690
:104770000D4617461E46DDF8188038E0701CA8B3B9
:10478000FDF73CF9A0EB0800B04200D876BBC5F3BA
:10479000074001280AD120684069A9B20840A9B29F
:1047A000884201D101200BE0002009E020688069E7
:1047B000A9B20840A9B2884201D1012000E000203E
:1047C000B84214D100202063202084F83D0000204E
:1047D00084F83E00206C40F02000206400BF0020E0
:1047E00084F83C0000BF0120BDE8F081FFE7C5F37D
:1047F000074001280AD120684069A9B20840A9B23F
:10480000884201D101200BE0002009E02068806986
:10481000A9B20840A9B2884201D1012000E00020DD
:10482000B842ABD00020DFE72DE9F04104460D4649
:1048300016461F4658E020684069C0F38020E8B162
:104840002068006840F40070216808606FF48060A0
:104850002168486100202063202084F83D0000206A
:1048600084F83E00206C40F00400206400BF00206B
:1048700084F83C0000BF0120BDE8F081701C90B3BB
:10488000FDF7BCF8C01BB04200D866BBC5F30740BB
:1048900001280AD120684069A9B20840A9B288421B
:1048A00001D101200BE0002009E020688069A9B255
:1048B0000840A9B2884201D1012000E0002090B94F
:1048C00000202063202084F83D00002084F83E0072
:1048D000206C40F02000206400BF002084F83C00E1
:1048E00000BF0120C8E7FFE7C5F3074001280AD150
:1048F00020684069A9B20840A9B2884201D10120CC
:104900000BE0002009E020688069A9B20840A9B244
:10491000884201D1012000E0002000288BD0002037
:10492000AAE770B504460D46164637E02068406990
:10493000C0F30010A0B16FF01000216848610020A2
:104940002063202084F83D00002084F83E00206C85
:10495000206400BF002084F83C0000BF012070BD2F
:10496000FDF74CF8801BA84200D8BDB9206840690B
:10497000C0F3801090B900202063202084F83D000F
:10498000002084F83E00206C40F02000206400BF2E
:10499000002084F83C0000BF0120E0E72068406967
:1049A000C0F380100028C1D00020D8E770B50446BD
:1049B0000D46164625E02046FFF764FD08B10120AC
:1049C00070BD681CE8B1FDF719F8801BA84200D83B
:1049D000BDB920684069C0F3C01090B900202063C1
:1049E000202084F83D00002084F83E00206C40F038
:1049F0002000206400BF002084F83C0000BF01209C
:104A0000DEE720684069C0F3C0100028D3D0002042
:104A1000D6E70000FEB504460D4616461F46642143
:104A2000B8B201232A46CDE900600291214604482C
:104A3000FDF7D2F808B10020FEBD0120FCE7000020
:104A4000E00E0020FEB504460D4616461F466421C2
:104A5000B8B201232A46CDE90060029121460448FC
:104A6000FDF774FA08B10020FEBD0120FCE700004C
:104A7000E00E002008B500BF0A48406940F002007F
:104A8000084948610846406900F00200009000BFF4
:104A900000BF002205213820FDF75AFC3820FDF721
:104AA00047FC08BD0010024000B5B1B01C222A49E5
:104AB0002AA8FBF7F2FC00212AA802F077FF274979
:104AC00008601C2224491C3123A8FBF7E6FC0021C6
:104AD00023A802F06BFF224908601C221E493831CE
:104AE0001CA8FBF7DAFC00211CA802F05FFF1D499F
:104AF00008601C221849543115A8FBF7CEFC002190
:104B000015A802F053FF184908601C2212497031A1
:104B10000EA8FBF7C2FC00210EA802F047FF1349C4
:104B200008601C220C498C3107A8FBF7B6FC002159
:104B300007A802F03BFF0E4908601C220649A83175
:104B40006846FBF7AAFC0021684602F02FFF0949DE
:104B5000086031B000BD0000C09200089000002045
:104B600094000020980000209C000020A00000205D
:104B7000A4000020A800002000B585B0002001900E
:104B800002900390049000BF7348806940F0400099
:104B9000714988610846806900F04000009000BFBC
:104BA00000BF00BF0846806940F080008861084669
:104BB000806900F08000009000BF00BF00BF084681
:104BC000806940F0100088610846806900F010009C
:104BD000009000BF00BF00BF0846806940F004009D
:104BE00088610846806900F00400009000BF00BFA3
:104BF00000BF0846806940F480708861084680697B
:104C000000F48070009000BF00BF00BF08468069BC
:104C100040F0080088610846806900F008000090B4
:104C200000BF00BF00BF0846806940F020008861D7
:104C30000846806900F02000009000BF00BF0022FD
:104C40003F214648FCF7D4FE00224FF4A8614448B7
:104C5000FCF7CEFE012208214248FCF7C9FE0022E3
:104C600001214148FCF7C4FE0022C0213D48FCF769
:104C7000BFFE0022DB213D48FCF7BAFE3F20019039
:104C800001200290002003900320049001A93348E2
:104C9000FCF70EFD1520019000200290039001A961
:104CA0002F48FCF705FD4FF4A86001900120029009
:104CB000002003900220049001A92948FCF7F8FC89
:104CC0000820019001200290002003900120049010
:104CD00001A92448FCF7ECFC302001902448029004
:104CE0000120039001A91F48FCF7E2FC012001907C
:104CF0000290002003900220049001A91A48FCF7BA
:104D0000D7FCC020019001200290002003900220D7
:104D1000049001A91348FCF7CBFCDB200190012093
:104D20000290002003900320049001A90F48FCF793
:104D3000BFFC002205210A20FDF70AFB0A20FDF72F
:104D4000F7FA002205211720FDF702FB1720FDF7D7
:104D5000EFFA05B000BD000000100240001801404D
:104D6000001C0140001001400020014000140140DF
:104D70000000111010B50B480B4908600B48486043
:104D8000002109488160C1604FF480410161002128
:104D900041618161C1610162FCF736FE08B1FCF737
:104DA000ADF810BD00540040E00E0020A0860100C8
:104DB00010B50B480B4908600B48486000210948B2
:104DC0008160C1604FF480410161002141618161D6
:104DD000C1610162FCF718FE08B1FCF78FF810BD45
:104DE00000580040340F0020A086010000B595B0A7
:104DF000002011901290139014900F9010901C218D
:104E000008A8FBF79EFB20216846FBF79AFB374872
:104E10003749086047204860002135488160632198
:104E2000C16000210161416180218161FDF720FFA6
:104E300008B1FCF763F84FF48050119011A92C4889
:104E4000FEF71EF808B1FCF759F82948FEF705FCF3
:104E500008B1FCF753F800200F9010900FA92448D8
:104E6000FDF77CFE08B1FCF749F8602008900020AF
:104E700009900A900B900C900D900E90002208A9BA
:104E80001B48FEF768FB08B1FCF738F8042208A9B4
:104E90001748FEF760FB08B1FCF730F8082208A9B4
:104EA0001348FEF758FB08B1FCF728F80C2208A9B4
:104EB0000F48FEF750FB08B1FCF720F800200090E7
:104EC00001900290039004904FF400500590400030
:104ED000079069460648FDF707FE08B1FCF70EF893
:104EE0000348FEF7D3FA15B000BD0000002C0140C6
:104EF000880F002000B58BB0242102A8FBF721FB0E
:104F00000020009001904FF0804017490860002079
:104F100048600021144881604FF6FF71C160002194
:104F20000161816103200290002003900120049020
:104F3000002005900690079001200890002009901D
:104F40000A9002A90848FEF721F808B1FBF7D6FF3E
:104F500000200090019069460348FDF7FFFD08B16D
:104F6000FBF7CCFF0BB000BDD00F002000B58BB01D
:104F7000242102A8FBF7E5FA0020009001901848D0
:104F800018490860002048600021164881604FF6EB
:104F9000FF71C16000210161816103200290002046
:104FA00003900120049000200590069007900120B6
:104FB0000890002009900A9002A90A48FDF7E6FF30
:104FC00008B1FBF79BFF002000900190694605485F
:104FD000FDF7C4FD08B1FBF791FF0BB000BD000069
:104FE000000400401810002000B58BB0242102A856
:104FF000FBF7A7FA002000900190184818490860B4
:10500000002048600021164881604FF6FF71C160A2
:1050100000210161816103200290002003900120A2
:105020000490002005900690079001200890002031
:1050300009900A9002A90A48FDF7A8FF08B1FBF7FA
:105040005DFF00200090019069460548FDF786FD50
:1050500008B1FBF753FF0BB000BD00000008004093
:105060006010002000B58BB0242102A8FBF769FA7C
:1050700000200090019018481849086000204860FE
:105080000021164881604FF6FF71C1600021016167
:1050900081610320029000200390012004900020F1
:1050A00005900690079001200890002009900A9032
:1050B00002A90A48FDF76AFF08B1FBF71FFF0020AD
:1050C0000090019069460548FDF748FD08B1FBF7DF
:1050D00015FF0BB000BD0000000C0040A810002020
:1050E00000B595B0002011901290139014900F907D
:1050F00010901C2108A8FBF724FA20216846FBF732
:1051000020FA2F482F4908600020486000212D48D0
:1051100081605921C1600021016141618161FDF718
:10512000A7FD08B1FBF7EAFE4FF48050119011A9DA
:105130002448FDF7A5FE08B1FBF7E0FE2148FEF785
:105140008CFA08B1FBF7DAFE00200F9010900FA93F
:105150001C48FDF703FD08B1FBF7D0FE6020089066
:10516000002009900A900B900C900D900E90082250
:1051700008A91448FEF7EFF908B1FBF7BFFE0020BD
:1051800009900C2208A90F48FEF7E5F908B1FBF7D2
:10519000B5FE0020009001900290039004904FF41F
:1051A000005005904000079069460648FDF79CFCBA
:1051B00008B1FBF7A3FE0348FEF768F915B000BD80
:1051C00000340140F010002000B58DB0002009909F
:1051D0000A900B900C90079008901C216846FBF7F2
:1051E000B0F92148214908604720486000211F4844
:1051F000816044F61F61C1600021016141618161EC
:10520000FDF736FD08B1FBF779FE4FF480500990A9
:1052100009A91648FDF734FE08B1FBF76FFE1348E5
:10522000FEF71BFA08B1FBF769FE00200790089013
:1052300007A90E48FDF792FC08B1FBF75FFE60205E
:10524000009040F2DC5001900020029004900C226B
:1052500069460648FEF77FF908B1FBF74FFE0348A1
:10526000FEF714F90DB000BD00340140F01000202D
:1052700010B50B480B4908604FF4E130486000213D
:1052800008488160C16001610C2141610021816198
:10529000C161FEF769FE08B1FBF730FE10BD0000EA
:1052A000004C00407C11002010B50B480B490860F1
:1052B0004FF4E1304860002108488160C16001611D
:1052C0000C21416100218161C161FEF74DFE08B1F1
:1052D000FBF714FE10BD000000500040C411002078
:1052E00010B50B480B4908604FF4E13048600021CD
:1052F00008488160C16001610C2141610021816128
:10530000C161FEF731FE08B1FBF7F8FD10BD0000EA
:10531000003801400C12002010B50B480B49086002
:105320004FF4E1304860002108488160C1600161AC
:105330000C21416100218161C161FEF715FE08B1B8
:10534000FBF7DCFD10BD00000044004054120020BB
:1053500010B50B480B4908604FF4E130486000215C
:1053600008488160C16001610C21416100218161B7
:10537000C161FEF7F9FD08B1FBF7C0FD10BD0000EB
:10538000004800409C12002000BFFEE72DE9F047D6
:105390008046894616461F46DDE90854632251427D
:1053A000204600F03FF8044654B9002249464046E2
:1053B000FCF71EFB002239463046FCF719FB18E0CB
:1053C000002C0ADD012249464046FCF711FB002271
:1053D00039463046FCF70CFB0BE0002249464046BC
:1053E000FCF706FB012239463046FCF701FB604220
:1053F00004B21DB90A48006844630EE0042D03D1CD
:1054000007480068846308E0082D03D10448006859
:10541000C46302E0024800680464BDE8F08700004D
:10542000880F00200346934201DD104670478B42EF
:1054300001DA0846FAE71846F8E7000010B500213F
:105440000848FEF751F904210648FEF74DF90821F6
:105450000448FEF749F90C210248FEF745F900F02F
:1054600033F810BD880F00202DE9FC4107460C469B
:1054700015461E4600202023114A1021CDE90007C1
:105480001046FFF783FF042002230E4A0121CDE9D5
:1054900000041046FFF77AFF08200423084A012180
:1054A000CDE900051046FFF771FF0C200823044AE0
:1054B0000221CDE900061046FFF768FFBDE8FC8138
:1054C000001801400014014010B500231A46194687
:1054D0001846FFF7C9FF10BD10B5044623466042C9
:1054E00002B22146604200B2FFF7BEFF10BD10B508
:1054F0000446604203B22246604201B22046FFF7F2
:10550000B3FF10BD00BFFEE708B508490968C90828
:105510004FF47A72B1FBF2F14143009100BF00BF3A
:1055200000994A1E00920029F9D108BDC000002050
:105530004FF08041496A08B20349488000214FF08A
:1055400080425162704700002C0100200449096824
:1055500008B20449C8810021014A11607047000067
:10556000240400402C0100200449096808B20449C1
:1055700048830021014A1160704700002408004060
:105580002C0100200449096808B20449C88400219C
:10559000014A116070470000240C00402C010020DB
:1055A0001548007818B31448007801281FD0124815
:1055B000007802281BD010480078032817D00E4826
:1055C0000078042813D00C48007805280FD00A482A
:1055D000007806280BD008480078072807D006482E
:1055E0000078082803D004480078092801D1012058
:1055F00070470020FCE700006400002001460029FD
:1056000001DB084670474842FCE7000000200449DF
:10561000087004490870044908700449087070470C
:105620007000002071000020730000207200002034
:105630000020024908600249088070478800002065
:105640006C00002001460C291FD2DFE801F006089B
:105650000A0C0E10121416181A1C0DA0704710A078
:10566000FCE713A0FAE715A0F8E719A0F6E71BA0DE
:10567000F4E71DA0F2E720A0F0E723A0EEE726A0C4
:10568000ECE727A0EAE728A0E8E729A0E6E7000082
:10569000424F4F545F505245504152450000000068
:1056A0005345415243485F53545241464500000020
:1056B0004C4F434B5F54415247455400464F52575D
:1056C0004152445F544F5F544152474554000000DB
:1056D000475241425F434C4F5345000044454349C4
:1056E00044455F5455524E005455524E5F4C45460A
:1056F000545F3138300000005455524E5F524947D4
:1057000048545F3138300000455849545F53545273
:10571000414947485400000052454C45415345001B
:10572000444F4E45000000004552524F52000000C9
:10573000554E4B4E4F574E0010B5FFF7F9FE404205
:1057400008490860FFF702FF07490860FFF71AFFE2
:10575000404206490860FFF707FF404204490860DD
:1057600010BD00004C00002050000020540000201C
:105770005800002070B517480078032800D070BD8D
:1057800015480068FFF73AFF054614480068FFF720
:1057900035FF054412480068FFF730FF0544114803
:1057A0000068FFF72BFF284484080F480068204456
:1057B0000D4908600846006803F0C2FA06464FF03B
:1057C0007E5103F005FB054603F082FA0749088085
:1057D00000BFD4E7640000204C00002050000020EF
:1057E0005400002058000020880000206C00002099
:1057F00070B592B00020019000262E48007808B9BC
:1058000012B070BD00202B4908702B4804880CB1E1
:10581000402C02D300F062F8F2E72246274902A8A2
:10582000FAF73BFE002002A9085525A102A8FAF7C5
:1058300024FE02A900220A549DF8080010B900F0C5
:105840004DF8DDE701AA1FA102A8FAF714FE0546EC
:1058500025B11DA12846FAF79BFE10B100F03EF8D5
:10586000CEE701AA17A10020FAF705FE054615B9F3
:1058700000F034F8C4E72846FAF7F0FD08B101203B
:1058800000E0002006464EB1012011490870114980
:1058900008704FF47A701049088006E000200C4927
:1058A00008700D4908800B49087000F017F800BF18
:1058B000A6E700008E0000208C0000204C0A00208B
:1058C0000D0A00002C0000002453574545500000ED
:1058D00065000020660000206800002010B5002050
:1058E0000449087004490880402204490448FEF72E
:1058F0007AF910BD8E0000208C0000204C0A002098
:105900009C1200200146B42900DDB4214FF4FA6056
:105910004843B42290FBF2F000F5FA7080B2704771
:1059200010B504466421204600F008F810BD10B5FB
:1059300004462321204600F001F810BD70B504464E
:105940000D462846FFF7DEFF0646012C02D102482D
:105950000068066470BD0000F0100020FFF7BEFF75
:1059600000BFFFF745FF0A2002F00FF8F9E700003B
:105970001CB500243C211948FDF76AFC3C2118485D
:10598000FDF766FC3C211748FDF762FC3C211648F8
:10599000FDF75EFC00BFFFF7CFFEFFF7EBFE1348FD
:1059A0000078012815D1FCF729F8001B642810D3D2
:1059B000FCF724F804460E4800680E490968CDE952
:1059C00000100D4803680D48026828210CA0FAF762
:1059D0009FFC0A2001F0D9FFDDE70000D00F002076
:1059E0001810002060100020A81000206400002083
:1059F0005800002054000020500000204C000020DF
:105A00005B5354524146455D20636D643D256420DF
:105A10007C2065313D25642065323D256420653359
:105A20003D25642065343D25640D0A00FEF70EFD1A
:105A3000322001F0AAFF00BFFEF784FC0A2001F02B
:105A4000A4FFF9E7022500F0F3FA01F011FD01F0DF
:105A500007FD642001F099FF00BFFFF7A1FD044698
:105A60000B48007880B9AC420ED000F0E1FA2CB1BE
:105A700050221146104601F037FD01E001F0F0FC24
:105A80002546322001F081FF322001F07EFFE4E75D
:105A900085000020FFF7D2FCFBF718F80B2500204B
:105AA000FBF7F8F900BF9D480078A84201D001201B
:105AB00000E0002004460CB198480578974800782B
:105AC0000C2879D2DFE800F00625395A82A3C6D91E
:105AD000F0EEEDEC9CB1FBF74DF9FFF797FDFFF70A
